3201903010000014200096206760LA0174753****3153153453JOÃO MACEDO   BAR DO JOÃO       
5201903010000013200556418151UE0633123****7687145607MARIA JOSEFINALOJA DO Ó - MATRIZ
3201903010000012200845152543BE0736777****1313172712MARCOS PEREIRAMERCADO DA AVENIDA
2201903010000011200096206760LA0173648****0099234234JOÃO MACEDO   BAR DO JOÃO       
1201903010000015200096206760LA0171234****7890233000JOÃO MACEDO   BAR DO JOÃO       
2201903010000010700845152543BE0738723****9987123333MARCOS PEREIRAMERCADO DA AVENIDA
2201903010000050200845152543BE0738473****1231231233MARCOS PEREIRAMERCADO DA AVENIDA
3201903010000060200232702987ZR0566777****1313172712JOSÉ COSTA    MERCEARIA 3 IRMÃOS
1201903010000020000556418151UE0631234****3324090002MARIA JOSEFINALOJA DO Ó - MATRIZ
5201903010000080200845152543BE0733123****7687145607MARCOS PEREIRAMERCADO DA AVENIDA
2201903010000010200232702987ZR0568473****1231231233JOSÉ COSTA    MERCEARIA 3 IRMÃOS
3201903010000610200232702987ZR0566777****1313172712JOSÉ COSTA    MERCEARIA 3 IRMÃOS
4201903010000015232556418151UE0631234****6678100000MARIA JOSEFINALOJA DO Ó - FILIAL
8201903010000010203845152543BE0732344****1222123222MARCOS PEREIRAMERCADO DA AVENIDA
3201903010000010300232702987ZR0566777****1313172712JOSÉ COSTA    MERCEARIA 3 IRMÃOS
9201903010000010200556418151UE0636228****9090000000MARIA JOSEFINALOJA DO Ó - MATRIZ
4201906010000050617845152543BE0731234****2231100000MARCOS PEREIRAMERCADO DA AVENIDA
2201903010000010900232702987ZR0568723****9987123333JOSÉ COSTA    MERCEARIA 3 IRMÃOS
8201903010000000200845152543BE0732344****1222123222MARCOS PEREIRAMERCADO DA AVENIDA
2201903010000000500232702987ZR0567677****8778141808JOSÉ COSTA    MERCEARIA 3 IRMÃOS
3201903010000019200845152543BE0736777****1313172712MARCOS PEREIRAMERCADO DA AVENIDA
